:1020000000800020616D0000116D0000496D00002E
:1020100000000000000000000000000000000000C0
:10202000000000000000000000000000496D0000FA
:102030000000000000000000496D0000B56D0000C8
:10204000496D0000496D0000496D0000496D0000B8
:10205000D96C0000496D0000413500004D6D000055
:10206000496D0000496D0000496D0000A52A00007F
:10207000496D0000394A0000496D0000496D0000BB
:10208000496D0000496D0000496D000049420000A3
:1020900000000000496D0000496D0000496D00001E
:1020A000496D0000496D0000496D0000496D000058
:1020B0000000000010B5064C2378002B07D1054B1B
:1020C000002B02D0044800E000BF0123237010BDA4
:1020D000A002002000000000FCF70000044B10B537
:1020E000002B03D00349044800E000BF10BDC046E8
:1020F00000000000A4020020FCF7000070B50620DC
:1021000005F064F9431E98410F4BC0B2187004F0FB
:1021100065FE0E4C05002368834213D22068281AFE
:1021200005F056FF011CFE20800505F0A3FC0849C0
:1021300005F0B2FD074905F0AFFD074905F09AFC2F
:10214000064B1860256070BD190000207C0300203C
:1021500000247449000070420000E0407803002031
:10216000F7B596210124444E8901300003F01CFA92
:102170000021082005F0CEF84049300002F0CDFCE7
:102180003F4D009423003C220221280001F080FBF7
:10219000002804D13B49300002F0D0FCFEE73A4968
:1021A000300002F0D5FCFA20800004F047FE280041
:1021B00001F05CFB2100280001F083F80023334F7D
:1021C0002B61334B39006B61280002F0C1FC3900F0
:1021D000300002F0BDFC280001F01EFEFA20800055
:1021E00004F02CFE2B4801F083FF80235B032B615E
:1021F0002800032101F065F82749280002F0A8FC17
:102200002100280001F05DF83000244902F0A0FC14
:102210000221062005F07EF804222149062004F060
:102220005FFC280001F0F8FD1E4802F0B1F91E48DD
:1022300002F0AEF91D4802F0ABF900221C4B1D491B
:1022400000200A604B6000211B4D286069601B4D17
:102250002860696000201A4D1A49009001912800F9
:1022600002F0F8FA2800210002F067FBFA20C00013
:1022700004F0E4FDF7BDC046F8090020E1E40000E9
:102280000C030020F5E400000FE5000019E5000054
:10229000010001003804002034E500002DE50000B5
:1022A000FD200000E4020020D0020020F8020020FF
:1022B00000408F400004002030040020C8020020AD
:1022C0008003002000409F40F7B50A2004F056FF2D
:1022D00000231C4C1C492361200002F01EFC5A23E1
:1022E0000820236104F0B4FF0100184802F060F9EF
:1022F00007F0E0FB164A174B06F0D0FD07F098FCFC
:1023000007F044FC012302000600009320000B00AC
:102310000F0002F035FD1049200002F019FC0F4DAE
:102320000F49280002F0F9FB022332000093280035
:102330003B0002F02EFD80235B0323610C2004F0A0
:102340001DFFF7BD0C03002084E40000F80200200C
:10235000E3FD76E12084903F89E40000F809002045
:102360008BE40000F8B506000D00144C144F20005B
:10237000390002F0D2FB31000A22200002F03FFCBB
:102380001049200002F0C9FB29000A22200002F0B7
:1023900036FC0D4C3900200002F0BFFB31000A2250
:1023A000200002F02CFC0749200002F0B6FB2900B7
:1023B0000A22200002F023FCF8BDC0460C030020D6
:1023C000C7E40000D4E40000F809002070B505005F
:1023D000054C0649200002F0A0FB29000A2220003B
:1023E00002F00DFC70BDC0460C030020A2E400000A
:1023F00070B505000A4E0B4C3100200002F08DFB39
:1024000029000A22200002F0FAFB074C31002000CC
:1024100002F083FB29000A22200002F0F0FB70BDCD
:1024200095E400000C030020F809002037B50325CF
:10243000114C1249200002F070FB114B20001A6869
:102440005B68009502F0A5FC0E49200002F065FBD8
:102450000D4B20001A685B68009502F091FC0B4957
:10246000200002F05AFB0A4B20001A685B680095B6
:1024700002F08FFC37BDC0460C030020ADE4000025
:1024800010000020B0E4000008000020B3E40000C9
:10249000C002002070B5142200242C4B88B01A60B2
:1024A0005C609C60DC602A4B0A321A605C609C6055
:1024B000DC60284B284E1A605C609C60DC60274B17
:1024C00022320293264B8021019301235B42009329
:1024D0003000244B01F0BEF8234D24492A0030007F
:1024E00005F0E0F8224B234E1A78234B3000197880
:1024F00001F0AEFF2A002149300005F0D3F8FA229E
:10250000FA231F4E92000092DB000921300001F0F7
:10251000D5FD2A001B49300005F0C4F81A4B06947B
:102520005C681B6804930594184B194A5C681B6827
:1025300002930394174B18495C681B681748009373
:102540000194174B02F05EFA08B070BDE40200205F
:10255000D0020020F80200200C030020A086010019
:10256000801A06005004002000000020B53600004C
:1025700018000020080400202C040020C54400009E
:1025800038040020EF400000C002002008000020B6
:102590000004002010000020C8020020800300205A
:1025A00030040020F0B587B0284C200002F05EFF18
:1025B000002848DD264B1E78002E44D1200002F072
:1025C0007DFF2449C3B22000059302F0C1FA0599AA
:1025D000200002F0C7FA059B1F4D204F702B18D129
:1025E00001223100200002F0E3FE07F0CFFA1C4B7D
:1025F0001860596038687968194B1A685B680290EE
:1026000003912868696800900191164802F012F958
:10261000CAE7059B692B09D101223100200002F095
:10262000C7FE07F0B3FA28606960E3E7059B642BF7
:10263000E0D101223100200002F0BAFE07F0A6FA34
:1026400038607960D6E707B0F0BDC046F8090020D1
:10265000F8030020B7E4000008000020C0020020BA
:102660001000002080030020F7B5354801F0FEF887
:10267000FFF798FF04F0B2FB324B334D1B68C01AD2
:10268000324B984257D8324B186805F037FC01009E
:10269000304801F08DFF07F00DFA286069600022D4
:1026A00003212D4801F046FFFA230400DB00984285
:1026B00000D91C00FA239B009C4200D21C00FA2285
:1026C000FA21264BD200009389000023200004F059
:1026D0002FFB0100224801F06BFF07F0EBF9214EC0
:1026E00030607160204801F086FF204F38687968BB
:1026F00007F0AAF901001E4801F007FDFFF7E4FD0D
:102700002000FFF763FE3868796807F09DF9FFF74E
:102710006FFE3068716807F097F9040028686968EF
:1027200007F092F92100FFF71DFEFFF77FFE044836
:1027300001F072FBF7BD002200232A606B60AEE758
:102740000C0300207C030020C80200201F4E000064
:1027500078030020D002002008040020983A0000EE
:10276000E402002030040020800300200004002048
:102770003804002000207047F8B505000E0017004F
:102780000024BC4208D02B68315D1B6828009847A4
:10279000002801D00134F4E72000F8BD70470300A1
:1027A000FC33196ADA69914203D01B6AC018007EB3
:1027B000704701204042FBE70300FC33D8691B6AE5
:1027C000C01A01D50130FF3070470000F7B5019302
:1027D000FA238026002504009B008360124B7600BC
:1027E00008330F0045602900009203603200183062
:1027F00007F066FB23002000FC332130DD6132004E
:102800001D622900FF3007F05BFB87239B00E31864
:102810005D609D606B461B78276123756B461B7955
:10282000A57520006375FEBD3CE5000070B506008F
:1028300018250C49006902F04FFD306902F0A0FB39
:102840002B000821307D084C4343E318595604F00F
:10285000DFFD0821707D45436419615604F0D8FD01
:1028600070BDC046A0860100D8F0000070B504001D
:102870000D00006902F099FB2900206902F02CFD8F
:10288000206902F07DFB70BD8A2300229B00C154A9
:102890000C3BC3185A609A6001238375704702008D
:1028A00010B5FC32536894680133DBB29C4202D00D
:1028B00054680155536010BD002210B5837D9342CA
:1028C0000DD087239B00C4186368A4680133DBB272
:1028D000A34204D02130FF30FFF7E1FF01221000B6
:1028E00010BD0300FC3399685A68914206D09A687B
:1028F000805C9A680132D2B29A60704701204042EF
:10290000FBE700228A2370B59B00827505000E004C
:10291000C15C006902F07CFB002806D10321286914
:1029200002F060FB0224200070BD872328009B007A
:10293000EA18536894682130FF301C1B01D501341C
:10294000FF34002C0ED02C69FFF7CBFFC1B2200062
:1029500002F09CFB0028E8D10321286902F042FB29
:102960000324E0E7002EDED00321286902F03AFBC1
:10297000D9E710B50121FFF7C4FF10BD10B518301D
:10298000FFF7AFFF10BD70B50400006902F09EFBB9
:10299000002814D0206902F0A7FB002810D020697D
:1029A00002F016FB0321206902F01CFB8C239B0024
:1029B000E558002D39D10023FC34E361236270BD5A
:1029C000206902F09BFB002809D0206902F091FBEE
:1029D000002804D0206902F096FB0028DFD020698F
:1029E00002F08CFB002826D1206902F078FB002839
:1029F000E5D0206902F087FB002837D087239B00B1
:102A0000E218536892689B1A01D50133FF33FF2106
:102A1000002B05D020002130FF30FFF762FFC1B24C
:102A2000206902F045FBA075C9E7236820001B69F7
:102A30009847A847BFE7206902F0CAFA2069032136
:102A400002F0D0FA206902F05EFB0028B7D087239D
:102A500000229B00E3185A609A600123A3758B2320
:102A60009B00E3589342AAD09847A8E72200FC3283
:102A7000D369126A0133DBB22069934206D102F0B6
:102A80009EFA0321206902F0ADFA98E702F040FBBC
:102A9000010020001830FFF702FF206902F098FAC9
:102AA000EFE7000010B50248FFF76DFF10BDC0460C
:102AB0005004002010B50523042202490248FFF704
:102AC00085FE10BDE8090020500400207047F0B5D5
:102AD0001D0089B00EAB00241C5F0FAB1B881600D5
:102AE0000693A31ADA179B18534002936B1ADA174E
:102AF0009B1853400393039A029B0190934205DC79
:102B000023002C001D0033000E001900A64205DC36
:102B10002B000D001900230034001E00331B9BB254
:102B200004934B1BDA179B18534007936B461022F4
:102B30009A5ED30F9B185B10009301238D4221DA1C
:102B40000593B44224DC019B039A1B689B691F0018
:102B5000029B934218DD22002900069B0198B8478A
:102B6000009B079A9B1A9BB21AB20092002A06DABF
:102B7000059AAD18049A2DB2D3181BB200930134F4
:102B800024B2DEE75B42DBE7069B2A002100E5E793
:102B900009B0F0BD704710B504682469A04710BDA6
:102BA00037B506AC258804680095A46BA04737BDEF
:102BB00037B506AC258804680095E46BA04737BD9F
:102BC00073B506AC0025655F07AC268804680196DE
:102BD0000095246CA04773BDF0B5160004000D00ED
:102BE00085B003930AAB1F8803685B699847039B12
:102BF0002268013B9B191BB200930197976A2B0037
:102C0000320029002000B84723682000DB6A98477B
:102C100005B0F0BDF0B505001C000E00170085B032
:102C20000AAB1B88013C03930368A4195B699847AE
:102C300003992A680191009723B23100946A280011
:102C40003A00A0472B682800DB6A984705B0F0BD22
:102C5000F0B50E0087B003930CAB029200229B5E8E
:102C6000050004930DAB1B883400059303685B6972
:102C70009847039A2B68B21894420ADA059A210001
:102C800000921F6A029A049B28000134B84724B2BC
:102C9000EFE7DB6A2800984707B0F0BD13B5019154
:102CA0000E24015F0C22835E02680091146C0022E6
:102CB0001100A04713BDF0B5040015000E0087B049
:102CC00004930CAB00229B5E05930DAB1B88039312
:102CD00003685B699847039A236800925F6A2A0039
:102CE000049B31002000B847059B03995A1E2368B6
:102CF000009152195F6A3100049B200012B2B8475C
:102D0000039A236800921F6A2A00059B3100200065
:102D1000B8470499039A236801390092891909B2C6
:102D20001F6A2A00059B2000B84723682000DB6A41
:102D3000984707B0F0BD7047F0B585B01E000AABEC
:102D40000027DF5F0BAB1B88140005000291039383
:102D50000268B14210D1BC4202DC3B0027001C00DB
:102D6000039901340091E31B966B1BB23A00029960
:102D70002800B04705B0F0BDBC4211D1029BB34260
:102D800002DC3300029E0293029B039901330091FF
:102D90009B1BD76B1BB2220031002800B847E9E724
:102DA00053699847039A2B68019200979F6A2800FD
:102DB000330022000299B8472B682800DB6A984745
:102DC000D8E70323194010B50822835E81760A24D0
:102DD000025F012904D0032902D08381C28110BD82
:102DE0008281C381FBE700004281C28101225242FD
:102DF00042610222002310B5FF32074C0283013AE0
:102E00000834FF3A43600460018181810361837665
:102E1000C2760377036210BD60EA0000F0B58DB0A2
:102E2000089312AB039200229B5E0791049313ABAD
:102E300000229B5E0400099314AB1B880A9303686D
:102E40005B6998470722049B039FD91DCB1713404A
:102E50005B18DB10059300231D0001930B92039A6E
:102E6000BBB206939B1A099A1BB29A422BDD002330
:102E7000049A93421EDA9AB202920B9A6D0099B2AA
:102E8000EDB2114204D1089A0199DB105218D55CB9
:102E90006BB2002B0ADA079B029A2000D118236834
:102EA00009B29B693A001E000A9BB047029E013698
:102EB00033B2DDE7059A019B9446069F63440137D0
:102EC00001933FB2CBE723682000DB6A98470DB03F
:102ED000F0BD0000F0B595B01D001AAB1B880400D2
:102EE00005931BAB1E881CAB1B78089103931DAB8D
:102EF0001B7804920293036A002B00D0C4E00C22DA
:102F0000835E8B4200DC7DE00E22835E049A934256
:102F100078DD0623039A53435B18002B72DD029B76
:102F2000049ADB009B18002B6CDD037F002B03D180
:102F3000AF2D01D90135EDB2236820005B699847B8
:102F400005235D430B9300230793984B5B190F9365
:102F5000079A0F9B9B5C0A936B469B8B09936B466E
:102F60009B890D936B460D9A1F8C099B5343FB184D
:102F70001BB20E9308230C930023069301220A9B95
:102F80002068134252D06B461A8B198A039B012B7F
:102F90003AD1029B012B37D1099B52188569D91967
:102FA000059B12B209B22000A847069B01335BB211
:102FB00006930A9B5B080A930C9B013BDBB20C93C4
:102FC000002BDBD1079B01335BB207930B9B013BCB
:102FD000DBB20B93002BBBD1059BB3420ED0039BFE
:102FE0002268012B3FD1029B012B3CD10537009673
:102FF000156A39B20733049A2000A84723682000D5
:10300000DB6A984715B0F0BD6B460C255B5F029DEF
:103010006A438A18059912B2019169460825495FE9
:103020000091C5690E992000A847BEE7059BB342F1
:10303000BBD06B46198B1A8A039B012B0AD1029BCA
:10304000012B07D1099B5218D91912B209B285690F
:103050003300A8E76B460C255B5F029D0196694330
:10306000521812B2D9E76B460C215B5E05210D9810
:103070000196414302987918C0000090D56909B2C1
:10308000049A2000A847B9E71A7AAD1AEDB25A6837
:10309000ED001B68551913932B880993AB780D939A
:1030A000EB7811930523EB560E930623EB560F9303
:1030B000039B012B02D8029B012B56D96B46382269
:1030C0009B5E0B936B463C229B5E0C930027236810
:1030D00020005B69984707970697119B069A9A42CA
:1030E00000D38BE76B461B8A00260A930C9B9B1828
:1030F000029A53430A9AD3181BB210933B000D9ABD
:1031000096424BD25A1CD2B212920722134207D1D6
:10311000099B0999139A0133525C9BB20792099358
:103120006B461B7F5BB2002B17DA6B46198C039B37
:103130002068012B1DD1029B012B1AD10A9B0F9AEB
:103140009A18069BD2180E9B12B2C9188369891966
:103150001D0009B2059B2000A847079B01365B00B4
:10316000DBB20793F6B2129BC9E700230C930B93D3
:10317000ACE76B460C229B5E0B9A039D92196A4347
:103180008918059A09B201926A460825525F009291
:10319000C26920001500109AA847DEE7069D0D9B26
:1031A0000135FF18EBB2FFB2069396E760E5000029
:1031B000F0B5026A85B004000B00002A34D10A2958
:1031C00008D1437E0282DB00628A9B186382012061
:1031D00005B0F0BD0D29FAD0E17E007E657E0029A4
:1031E0000ED01026A15F0626464389190C27E65FFC
:1031F000B14205DD1226A15F2282EA0052186282E6
:103200000290E08A1221625E0190A08A1026A15FDE
:10321000009003952000FFF75DFE0622237E5343B6
:10322000228A9B182382D2E70A2905D10023038230
:10323000127B437E5343C7E70D29C8D0117A8B42D6
:10324000C5D3907A9842C2D3591AC9B25068C900FE
:103250004518AF78002F28D0E978002925D0E17EE5
:10326000207E667E002913D005216956C919414385
:103270008C461021675EBC440C21675EBC4507DDAF
:103280001227E15F00272782127B72435218628265
:103290000290E08A1221625E0190A08A1027E15F0D
:1032A000009003962000FFF715FE2B79227EB6E7EB
:1032B000002900D101310176002A00D10132427685
:1032C000704710B50A00FFF7F3FF10BDF0B504001A
:1032D00085B01E000AAB1B78103001930BAB1B7836
:1032E000170002930CAB1B780D00039300F0F4F869
:1032F0002000243000F0F0F8220000234032A363C5
:10330000E363137063729D4205D10A4B0A4A22217E
:103310000A4806F02FFD6B461B79200063716B464F
:103320001B7A2560E3716B461B7B2771A6712372A4
:1033300005B0F0BDB8EA000025EB0000C9EA0000C6
:10334000437A002B04D18372C372C360013343728A
:10335000704730B5040085B002AD00680291039259
:1033600001F0C9FD6B79227AE1790093206800238E
:1033700001F088FF2979029A206801F0E1FD2068B8
:1033800001F0AFFD05B030BD70B518260400FFF7A1
:10339000D7FF3300082120790D4D4343EB185956D0
:1033A00004F036F833000821A0794343EB1859564E
:1033B00004F02EF8082160794643AD19695604F0EF
:1033C00027F8044B200006CBFFF7C3FF70BDC046B3
:1033D000D8F00000C806002007B5837A009101925A
:1033E000002B07D09A070AD5EFF310835A425341B6
:1033F000C37272B60099019AFFF7ABFF07BDDB07F6
:10340000F8D5C368014A9BB29360F3E70018004007
:10341000837A002B05D09A0704D5C37A002B00D0FD
:1034200062B67047DB07FCD5C368024A9BB2D36023
:10343000F7E7C0460018004010B5006801F064FDD1
:1034400010BD00001FB5094B094A0A491A60002245
:103450005A711A71012302930193093300930932BF
:10346000023B0548FFF732FF05B000BDC80600204B
:1034700000093D00E009002084060020094B18687F
:10348000002809D1EFF310820749002A08D172B64B
:10349000BFF35F8F01320A701A6801321A607047F9
:1034A0000870F9E7D4060020D0060020084B1A68FF
:1034B000002A0CD01A68013A1A601B68002B06D14A
:1034C000044B1B78002B02D0BFF35F8F62B67047AE
:1034D000D4060020D0060020FF23002110B50400F0
:1034E0000370FC3B41708170C170017143710C220B
:1034F000083006F0E5FC200010BD000001220B00A2
:1035000010B5134008D00D4B1A7004234370836824
:10351000002B00D0984710BD0222114204D0074969
:103520000A704370C368F3E704231942F3D0034AD7
:103530001370033343700369EAE7C0464E48004105
:1035400010B5FFF79BFF0C4B1B8C1B071B0F0B2BA6
:103550000FD80A4A9900885800280AD00F24084931
:103560000A78A24313430B70064B1978C9B2FFF7D0
:10357000C5FFFFF79BFF10BD00480041D8060020A3
:103580003F4800414E480041F0B500291BDB0C25A7
:10359000445F8C4217DD002A15DB0E25445F944200
:1035A00011DD847E022C0FD0032C16D0012C04D107
:1035B000D2430489A4180A0021B2012B13D0002B96
:1035C00022D0022B32D0F0BDCC4301890919D4435B
:1035D000428909B2121912B2EFE7C943448964184B
:1035E000110022B2E9E70725D4172C40A4182A407D
:1035F00093400827C65FE41074436118C46A6118D9
:103600000A7813430B70DEE70724D31723409B1877
:103610000826855FDB106B435918C36A224059188E
:10362000012393401A000B789343EBE70724D31749
:1036300023400826855F9B18DB106B435918C36A2B
:10364000012022409040020059180B785A400A701D
:10365000B9E7000070B5002504001E0012B204ABEB
:1036600009B25D57FFF7C0FB0F4B083323600023FF
:1036700063629E4200D10D4E2100FF223331A662CB
:10368000E3620A704A708A70CA702200373215707D
:10369000059A2000A265069AE265054A6266220044
:1036A00064325371137170BD1CF00000500400208F
:1036B00000093D00054B10B5083304000360C06AE3
:1036C000002801D006F0C4FB200010BD1CF0000053
:1036D000F8B50400806A0D00002812D023003033B2
:1036E0001978FFF7D1F8A06A002103681B68984792
:1036F000A06A290003681B689847A06AFFF739F998
:10370000F8BD226C216D1368606A8B43136000283A
:1037100003D02900FFF790FEF2E708218020E36B39
:10372000A26BA76C166828420ED03E4316601E6836
:10373000E76C01393E431E601E68E76C4008BE43DB
:103740001E600029EDD1DBE7BE43EFE770B5040052
:10375000806A0D00002810D0A16DFFF787F82900BE
:103760004D1EA9412000A631FFF7B2FFA06A002834
:1037700010D0E16DFFF77AF870BD606A002803D0C1
:10378000616EA26EFFF728FE626C616D13688B4359
:103790001360E4E7626C616D1368606A0B43136049
:1037A0000028E9D0FFF734FEE6E7F7B50400806AA9
:1037B0008B180D000193002828D027003037397866
:1037C000FFF762F8A06A0021036801261B6898478A
:1037D000019BA06A9D4216D0FE2E0BD9FFF7C9F8B7
:1037E0003978A06AFFF750F8A06A00210368012623
:1037F0001B689847A06A2978036801361B689847B8
:10380000B6B20135E4E7FFF7B4F8F7BD226C216DDD
:1038100013688B431360019BAB42F6D02B78606A30
:103820000093002804D01900FFF706FE0135F2E7E7
:1038300008208026E36BA26BA16C17688C46009968
:103840000E4210D0614639430F0017601F68E16CCB
:1038500001380F431F601F68E16C76088F431F60BB
:103860000028E9D1E2E761468F43EEE7072110B572
:103870000A22835E0733DA170A40D2180821435E12
:10388000D2105A43C06A002106F01AFB10BD000096
:10389000F0B587B004930CAB1B7804000593C36AA2
:1038A0000F001500002B1BD02000FFF7DFFF0A23BD
:1038B000E25E0823E15E202A25DC203AD30F9A1825
:1038C0000B00733BD90FC918012302931F33521009
:1038D000491001935333009312B209B2B14B24E063
:1038E0000A22835E07220733D8171040C018082227
:1038F000A35EC010584306F0A1FAE062061ED3D1C1
:10390000300007B0F0BD403AD30F9A180B00523B7D
:10391000D90FC918012302933F3301931233521078
:1039200049100093A04B12B209B22000FFF776FABB
:10393000230031331F70A06A002800D19BE0002DC6
:1039400000D096E00A23E55E203D6B1E9D413C358C
:10395000230030331D70059B002B00D11CE1FEF7C6
:1039600065FF049B002B1DD025000020373528560D
:10397000002817DB012103F0CDFC0020012128568F
:1039800003F0F8FC012003F059FA0020002128562A
:1039900003F0F0FC0A2003F051FA00200121285620
:1039A00003F0E8FCA06A002800D1CDE0A16DFEF78D
:1039B0005DFF04227D492000FFF7F7FE61892000AA
:1039C0000139C9B2FFF784FE25007949042220009D
:1039D000FFF7EBFE00233135EB561421012B00D10C
:1039E00004392000FFF774FE2600042271492000EC
:1039F000FFF7DBFE8F2360363370A3686E4A022721
:103A000093420BD06D4A934200D0AAE00022AA56FE
:103A1000CF23012A00D1303B12273370DA21200056
:103A2000FFF756FE39002000FFF752FE81212000EB
:103A3000FFF74EFE31782000FFF74AFED921200023
:103A4000FFF746FE0023EB56F121012B00D1CF39C1
:103A50002000FFF73DFE200006225949FFF7A5FE92
:103A6000A06A002800D18AE0E16DFEF7FFFE012682
:103A700046E76DB26CE72500002035352856012158
:103A8000270003F047FC002036373856012103F0A9
:103A900041FC002318210126EB564A4D4B435A574F
:103AA0004948D201121822643200EB185B689A4030
:103AB00000232265FB564B435A574449D201511803
:103AC000121862643200EB185B68606A9A40130057
:103AD00062650A6913430B61002806D0059B002B21
:103AE00000D13EE7FFF750FC3BE7270000203337CB
:103AF0003100385603F00EFC2300002034330593C8
:103B00001856310003F006FC00231821FB562E48FE
:103B10004B435A57EB18D2011218A26332005B686C
:103B20009A40059BA2641B785BB24B435A57ED1831
:103B30006B6826499E40D2015118E6640B69121841
:103B4000B343E2630B610CE7606A002803D0616E47
:103B5000A26EFFF741FC626C616D13688B431360CA
:103B600027E71B4A0227934200D057E70022AA56B4
:103B7000AF23012A00D19F3B337002274EE7626CCE
:103B8000616D1368606A0B4313600126002800D141
:103B9000B6E6FFF73DFCB3E6049B002B00D0E3E65E
:103BA00004E7C04639EE000079EB000084F0000025
:103BB00088F000008CF000008000200080004000B1
:103BC00090F00000D8F00000104400410044004193
:103BD00060001000F0B5140005AA1688002C41DB27
:103BE0000A25425FA2423DDD002902DA5B1800216E
:103BF0001BB20822855E5A18AA4201DD6B1A1BB25D
:103C0000002B2FDD0727E2173A401219D210554337
:103C1000C26A01203C40A04069185218C0B2012E6F
:103C20000CD0002E13D0022E1CD1013B1BB2591C0C
:103C300018D01178414011700132F6E7013B1BB2F8
:103C4000591C0FD01178014311700132F6E7C043BF
:103C5000C0B2013B1BB2591C04D011780140117055
:103C60000132F6E7F0BD0000F0B505AC258800296B
:103C700076DB0824065FB14272DA002A02DA9B186A
:103C800000221BB20A27C45FD718A74201DDA31A7E
:103C90001BB2002B64DDD2B2DCB2D30873435918D7
:103CA000C36A591807231A401FD001339A1A314B9F
:103CB000D2B29B5C944254D2FF26171B3E41334044
:103CC000012D06D0002D08D0022D49D10E78734069
:103CD00001E00E7833430B7002E00E789E430E70C5
:103CE00094423DD30826835FC918A31ADBB2072B81
:103CF00022D9022D10D11A000C78083AE4430C7036
:103D00000825445FD2B20919072AF5D807221340C3
:103D100026D0194AD35C19E02C00621E94411A0087
:103D20006442E4B20C700827C65F083AD2B289191F
:103D3000072AF7D807221340002B11D00E4AD35C74
:103D4000012D06D0002D08D0022D09D10A7853404C
:103D500001E00A7813430B7002E00A789A430A7074
:103D6000F0BD012DB5D0002DB7D0022DAED08919F0
:103D7000BBE7C04674F000007CF0000037B51400CB
:103D800006AA1588827E022A0DD0032A18D0012A9D
:103D900011D1E2430489A41824B20A00009521003D
:103DA000FFF762FF0BE0E2434489C918A4180289B7
:103DB00024B2511A09B200952200FFF70BFF37BD5C
:103DC0004289C918511A09B2E7E737B5140006AAA3
:103DD0001588827E022A0DD0032A18D0012A11D11B
:103DE0000289E418141B24B20A0000952100FFF791
:103DF000F1FE0BE0CA430189E4188918428909B22F
:103E0000141B24B200952200FFF72EFF37BDCA43D2
:103E10004189891809B2E7E7F7B50400806A0028EC
:103E200048D0A16DFEF722FD05224C492000FFF786
:103E3000BCFC218920000139C9B2FFF749FC0721E8
:103E40000A23E25EA06A0732D3170B409B1822892F
:103E5000DB1053439BB20093E66A002840D0270052
:103E600030373978FEF710FDA06A4021036801253C
:103E70001B689847009BA06A013B9BB200931A0005
:103E8000374B9A4223D0FE2D0BD9FEF772FD3978BD
:103E9000A06AFEF7F9FCA06A4021036801251B68AF
:103EA0009847A06A3178036801351B689847ADB21E
:103EB0000136DFE7606A002803D0616EA26EFFF76B
:103EC0008BFA626C616D13688B431360ACE7FEF78D
:103ED00050FDA06A002836D0E16DFEF7C7FCF7BDA3
:103EE000226C216D136801960B431360009B013B0C
:103EF0009BB200931A001A4B9A42EAD0019B606A67
:103F00001978002805D0FFF797FA019B0133019338
:103F1000ECE708208025E36BA26BA76C16680D42C6
:103F20000ED0374317601E68E76C01383E431E60B1
:103F30001E68E76C6D08BE431E600028EDD1E4E703
:103F4000BE431660EFE7626C616D1368606A0B43F5
:103F500013600028C3D0FFF75BFAC0E796F00000BB
:103F6000FFFF0000322313B502680093946A014AF0
:103F7000A04713BD1304000013B504680093A46A9E
:103F80001300014AA04713BD13040000322313B5E8
:103F900004680093A46AA04713BD10B500690368C4
:103FA0001B69984710BD10B5006903689B69984765
:103FB00010BD10B5006903685B69984710BD10B566
:103FC00000690368DB68984710BD0120704770B531
:103FD000040016002286026A0D00E162002A00D069
:103FE00013002362636A002B00D00493049BA06932
:103FF0006362002806DB012103F08CF90021A0692F
:1040000003F0B8F9E069002806DB012103F082F92A
:104010000121E06903F0AEF9230000222069283372
:104020001A700368320029001B6A984770BD10B5EA
:104030000400006903685B6A9847E069002806DBB2
:10404000002103F097F90021A06903F063F9A0694A
:10405000002806DB002103F08DF90021E06903F060
:1040600059F910BD030010B528331B78002B03D17C
:1040700001224260180010BD006903681B68984760
:10408000F9E70000FA210A4B8900996009490022EA
:104090000831196008495A6019610621596199610E
:1040A0000139D9611A625A6228331A707047C046C2
:1040B000080700209CF00000A4070020F8B51D00B0
:1040C000FA231600FA2204000F009B004360C3602D
:1040D000F53BD200FF3B82600361143000F0BEF874
:1040E000069B27706660A56020002361F8BD7047BD
:1040F00070B50500040014350178280000F078F947
:104100002800216900F07CF970BD436810B58B422E
:1041100003DC83688B4200DD0B00C36019001430A0
:1041200000F06EF910BD0000F7B50C27404E01936A
:10413000335C04005BB20D0000924743002B2EDA83
:1041400000230B82EB7BDB09FCD1335D394A013361
:104150005BB23355335D12785BB2DB19934203DAFD
:10416000335D5BB20B2B34DD2F8ABFB2EB7BDB09F7
:10417000FCD1314B3149186803F0AAFA304B0437AF
:104180005843009B00090C3387424DD280B25B003C
:104190005853EB7BDB09FCD1FF33335540E0335CF4
:1041A000244A5BB21278DB199342CEDA335C254A9B
:1041B0005BB2DB19DB009B5C5B06C6D5335C002180
:1041C0005BB2DB19DB00985C8006800E03F0D2F84E
:1041D000BBE7335D1B4A5BB2DB19DB009B5C5B0614
:1041E00009D5335D01215BB2DB19DB00985C8006E9
:1041F000800E03F0BFF82A8A92B2EB7BDB09FCD178
:10420000335D5BB2DF190F4BFF00DF197B68D318FA
:10421000009A9BB20C3252005353EB7BDB09FCD16A
:104220006B461B79AB73F7BDBFB25B005F53B0E762
:104230003D0700203C0700209800002040420F006E
:10424000204E000040070020002210B51023024934
:104250001000FFF769FF10BD0030004270B50C4B35
:1042600005001C780B2C10D8621C1A70094B0470C6
:104270001868094903F02CFA084BE4005843084B2E
:1042800000091C196060280070BDFF230370FAE765
:104290003C0700209800002040420F00DC05000091
:1042A00040070020F7B50193037804000E001700C3
:1042B0000B2B00D98AE03000012103F02BF83F21BD
:1042C00032002078424DC3005E5D0A408E431643A3
:1042D0005E558823032296219B00DB1BDF171740C6
:1042E000FF18019B0901C91ACB1713405B189B10DB
:1042F000BF10A37067700C2103F0EAF90C23C0B261
:1043000043431A000C32D900695C490658D4013382
:104310009342F8D1002853D12E4B2F4A5A805A7815
:10432000D209FCD12D4E0232338893433380F37B84
:10433000DB09FCD101333380F37BDB09FCD133880B
:10434000DB07FCD433889BB233804023328813438D
:10435000338080233288DB0013433380012332799A
:1043600013433371F37BDB09FCD11D4B1D491868E6
:1043700003F0AEF90300FA2080005843000980B230
:104380003083F37BDB09FCD18021174B0903174AEB
:10439000D967BFF34F8FBFF36F8FC023C4205B007B
:1043A000D150800013581B021B0A135011601023B8
:1043B000737332880E3B13433380F37BDB09FCD1EC
:1043C00040222378DB00E95C0A43EA542078FEBDF2
:1043D00040070020000C00401C400000003000425C
:1043E0009800002040420F0004E100E000E100E0FE
:1043F0009623882210B51B019200FFF753FF10BDD2
:1044000070B505780B2D1BD801238824C356E41AF8
:10441000A4008C4208DC96248078A40040B2241AC0
:10442000A4008C4200DD0C00064B0749186803F01D
:104430004FF9053C6043054BED0000095D196860CC
:1044400070BDC0469800002040420F004007002089
:10445000F8B5FA239B000360FA23DB0043600A23CC
:10446000040000278360134B0D00C360124B16003D
:10447000036121756275077787610762900002F01A
:1044800033FD3900A061BE4204DDBA00821811601C
:104490000137F8E70021280002F03CFF074B1A68BB
:1044A000002A05D10432064928001C6002F018FBDE
:1044B0002000F8BD3408000020A10700A00700205C
:1044C0002545000010B50400007D02F0C5FB064B39
:1044D0001A68A24201D100221A60A069002801D006
:1044E00002F00AFD200010BDA007002070B50400F6
:1044F000056A02F073FC2062236AE2685B1B9A4241
:1045000002D20023237770BD227F617D9142FAD9C8
:10451000227FA16992008A181360237F0133DBB2E6
:10452000F0E7000010B5024B1868FFF7DFFF10BD81
:10453000A007002070B504000D00160072B602F04E
:104540004DFC236A62B6C01A2369834201D8300049
:1045500070BD002DFBD0637DAB42F8D372B60B4B20
:10456000ED18A369AD005D192B6862B62068A268DA
:10457000811A8B42EBD3616852189342E7D8834289
:10458000E6D318008B42E3D90800E1E7FFFFFF3FC5
:1045900010B5064B04000068984204D8800002F071
:1045A000A3FC206110BD01204042F8E7FEFFFF1F81
:1045B000C26870B505699200AA18446805688368E6
:1045C000AC4215DA013444605B1883601160C36843
:1045D00002680133C360934201DB0023C36041687A
:1045E0008068CB0F5B185B10181803F0FBF870BDE8
:1045F00014681B1BE8E70300F0B570331D788DB01D
:104600000400002D03D1002528000DB0F0BD02F0FC
:10461000DFFB626C0790831AA26D9A42F3D8A36BFA
:10462000216C1A685B68086849680292039304F079
:10463000A7FE226D636D089009910298039904F01A
:104640009FFE226A636A0A900B910898099904F008
:1046500025FCA26CE36C03F0FBFC06000F002300BA
:10466000A664E76471331B780693002B0DD1A26911
:10467000E3690A980B9904F011FC02000B0030006A
:10468000390004F07DFEA064E164A26CE36C049246
:10469000059304980599A26EE36E0092019303F0CE
:1046A000B7F9002842D0009A019BA264E364069BFC
:1046B000002B48D0A269E3690898099904F0EEFB41
:1046C00006000F00A26AE36A0A980B9904F0E6FB61
:1046D00002000B00A06CE16C04F052FE32003B00C3
:1046E00003F0B6FC06000F0002000B0000980199D1
:1046F00003F07AF900280DD1226E636E00920193C7
:104700000098019932003B0003F082F9002801D1A2
:10471000009601970099019AE36B19605A60029A1A
:10472000039B22656365079B63646DE7266E676E76
:104730000498059932003B0003F056F90028B6D0E2
:10474000A664E764B3E700260027BBE7F0B585B0B1
:1047500000920193040000980199002200230E9D0D
:1047600003F042F9002860D10A980B990022002337
:1047700003F03AF9002858D10C980D990022002333
:1047800003F032F9002850D16563013D6B425D4171
:10479000230071331D70A06D009A019B226063603D
:1047A0000A9A0B9BA260E3600C9A0D9B22616361E5
:1047B00005F0BAF900221E4B03F066FF009A019B38
:1047C00006000F00A261E36102000B000A980B993A
:1047D00004F064FB02000B00029003910C980D9909
:1047E000226263623B00320003F04EFF06000F00BE
:1047F000236BA662E762012B17D1009A019B002070
:10480000002104F0BDFD029A039BA061E16100203C
:10481000002104F0B5FD3200206261623B000020FF
:10482000002104F0ADFDA062E16205B0F0BDC0461C
:1048300000408F4030B5416B87B00C9C0D9D0491BA
:10484000029403950A9C0B9D00940195FFF77EFF4F
:1048500007B030BDF7B516001F00089A099B040089
:104860003900300003F0DEF800283FD1089A099B98
:10487000A266E36623002666676670331B78002B0A
:1048800034D008980999E56B2A686B680092019307
:1048900003F0AAF8002814D0089A099B2A606B60DC
:1048A000A26CE36CA66EE76E0092019300980199EA
:1048B00032003B0003F0ACF800280DD0A664E7649A
:1048C00014E0009A019B3000390003F0A1F80028A1
:1048D000E6D02E606F60E3E7266E676E0098019960
:1048E00032003B0003F080F80028E7D1F7BDD3B5D4
:1048F000866EC76EC36B04001A685B688264C3640B
:1049000000920193836B1A685B68026543650098A7
:10491000019932003B0003F07BF8002802D0A66426
:10492000E76409E0266E676E0098019932003B004B
:1049300003F05AF80028F2D1D3BD70B54C1E634283
:104940005C410500E4B27035012904D12B78002BBD
:1049500001D1FFF7CCFF2C7070BD030070B5703330
:104960001B7804000D00002B1AD0036B8B4217D06C
:104970008269C3690021002004F002FD226A636A93
:10498000A061E1610020002104F0FAFCA26AE36A60
:10499000206261620020002104F0F2FCA062E1626A
:1049A000256370BD10B503640300C2630022703339
:1049B00081631A7000220023026643660022104BB6
:1049C00004008266C366642386B00F998365FFF78F
:1049D000C4FF0E9B200004930C9A0D9B029203933C
:1049E0000A9A0B9B00920193089A099BFFF7AEFE6F
:1049F00002F0EEF9A36DC01A6064200006B010BD8D
:104A000000E06F4070B588B00400109D119E1298B0
:104A1000049505960E9D0F9E079001200295039622
:104A20000C9D0D9E0690009501962000FFF7BAFFA1
:104A3000200008B070BD000010B5024801F08FFFE3
:104A400010BDC046A407002013B51249124800F05B
:104A5000B2F91249124800F0AEF91249124800F0BA
:104A6000AAF91249124800F0A6F9124C1249200086
:104A700000F0A1F91149124800F09DF900230193BB
:104A8000013300930722053321000E4801F0D6FEC2
:104A900013BDC04600080042E0090020000C00429F
:104AA000E409002000100042E80900200014004240
:104AB000EC090020F009002000180042001C004210
:104AC000F4090020A4070020F7B506000D000C0033
:104AD0008B180193019B671B9C4207D03368217898
:104AE0001B683000984701340028F3D13800FEBD20
:104AF00070B5040008000D0006F062FA2368020099
:104B000029005B682000984770BD10B50B1E02D0CD
:104B1000FFF7EEFF0300180010BD10B5FFF7F5FF1B
:104B200010BD10B503681B68984710BD10B5024949
:104B3000FFF7DEFF10BDC0467CF2000070B5040038
:104B4000FFF7E3FF05002000FFF7F0FF401970BDFD
:104B500070B50400FFF7D9FF05002000FFF7E6FF5E
:104B6000401970BD70B50500FFF7DBFF0400280099
:104B7000FFF7DCFF201870BDF0B58BB06B46150059
:104B8000002205330600DA770800012D00D80A2537
:104B900009AC290002F022FECAB213003733070025
:104BA000DBB2092902D813003033DBB2013C237099
:104BB000002FEED121003000FFF7A7FF0BB0F0BDB2
:104BC000F8B506000C00151E04D10368C9B21B68B5
:104BD0009847F8BD0A2A0CD100290BDA2D21FFF7DE
:104BE000A0FF614207002A003000FFF7C5FF381818
:104BF000EFE7D2B221003000FFF7BEFFE9E770B562
:104C00000400FFF7DDFF05002000FFF78FFF4019CC
:104C100070BD0000F7B51E0008AB1B783100019392
:104C2000050033001000170004F0F2FE4B49002885
:104C300014D10122740064085242494B380021000B
:104C400004F0E6FE00280FD10122454B5242380005
:104C5000210002F0D3FE002806D142492800FFF7C8
:104C600047FF04002000FEBDE0223F4B1206380043
:104C7000310002F0CDFE002801D03C49EEE7E022F1
:104C80003B4B12063800310002F0AEFE0028F4D192
:104C9000002200233800310002F0A6FE041E07D0D7
:104CA0002D212800FFF73DFF802304001B06F61886
:104CB000002300202F490093019B009A934208D0C3
:104CC0002D4B002203F0E0FC009B0133DBB200938C
:104CD000F2E733003A0003F0BBF90F00060002F0E0
:104CE000ABFE0A22019001002800FFF745FF009B60
:104CF0000419002BB6D0019804F016FF02000B0037
:104D00003000390004F03CFB06000F0028001B496E
:104D1000FFF7EEFE2418009B013BDBB20093FF2B54
:104D2000A0D0154B00223000390004F0B7F80F0076
:104D3000060002F081FE0A22010001902800FFF720
:104D40001BFF2418019804F0EFFE02000B00300056
:104D5000390004F015FB06000F00DCE770F20000DC
:104D6000FFFFEF7F74F20000FFFFEF4178F20000D9
:104D7000FFFFEFC10000E03F00002440F3E400002B
:104D800037B51D00069BDBB200932B00FFF742FFF7
:104D90003EBD37B519000400069B2000DBB200932E
:104DA0000B00FFF737FF05002000FFF7BFFE40199B
:104DB0003EBD10007047016070479446F0B59E1EDE
:104DC000721E96416246056892072F6836063A437E
:104DD00032432A60072505AC24780068A4012940E5
:104DE000214342680024022B00D05C03114321437D
:104DF0004160F0BD30B5C0250368AD031C681205E5
:104E00002A402243C0240904A4022140114319600E
:104E100003685A6814435C6030BD0123026811685E
:104E20000B43136003681A68D207FCD4DA69D2070F
:104E3000F9D470470223026811680B4313600268BB
:104E4000D3699B07FCD4704703681A7ED20702D44B
:104E50001A7E9207FCD57047002203685A83704778
:104E60000368187E4007C00F70470368187EC009AA
:104E70007047802302685B42117E0B4313767047B4
:104E80000368588B8007C00F704702230268518B5C
:104E90000B43538370470368187EC007C00F7047E9
:104EA0000368188DC0B2704703681A7ED207FCD51C
:104EB00089B2012019857047012203689A757047ED
:104EC000012203681A7570470123026811680B43B9
:104ED000136003681A68D207FCD4DA69D207F9D4E0
:104EE00070470223026811680B4313600268D3699C
:104EF0009B07FCD470470368DA699207FCD402214F
:104F00001A688A431A6070470268936A5B0A5B02F8
:104F10001943916203681A7E5207FCD5986AC0B2A1
:104F20007047000010B54900044802F0D1FB80B280
:104F3000002801D0013880B2C0B210BD006CDC0284
:104F400070B54B080C00012105680B400C402E6821
:104F500024075B07234333432B6011000468FFF7EA
:104F6000E1FF207370BD0123026811680B431360D9
:104F700003681A68D207FCD4DA69D207F9D47047FB
:104F80000223026811680B4313600368DA69920711
:104F9000FCD430215A8B8A43110010220A435A83D1
:104FA0000268D3695B07FCD470470221026813686A
:104FB0008B4313600268D3699B07FCD4704780233E
:104FC0000268DB02116851680B43536070470000B0
:104FD000036803491A685A680A405A607047C04615
:104FE000FFFFFBFF032230B5036811401C68074D2B
:104FF0005A6809042A40E4061143640F5960052CDD
:1050000003D10268D3695B07FCD430BDFFFFFCFF0E
:1050100030B503680400588B8006800F022814D036
:105020005D8B0020AD06AD0F032D2ED0588B800771
:1050300005D55D8B0020AD06AD0F012D25D10020DB
:105040005D8BAD06AD0F85421FD04800596A1043F5
:10505000C90AC0B2C902014359622368002A08D1B3
:105060001A7ED207FCD5588B4007C30F0120584049
:105070000BE0187E8007C00FF5D11A7ED207F8D555
:10508000C022596892020A435A6030BD036828332F
:1050900019700368187EC007C00F03D15A8BD2075E
:1050A000F8D57047588B4007C30F01205840F8E7E8
:1050B000036828331970036800201A7E520704D54C
:1050C000588B01234007C00F584070470368186889
:1050D000C006400F043843425841C0B270470368CD
:1050E000187E4007C00F70470368187EC007C00FC6
:1050F00070470368588BC006C00F70470368187E5E
:105100008007C00F70470368588B0007C00F7047B7
:1051100003681A68D206520F052A02D11A7E920736
:10512000FCD528331878C0B2704700000368104AD5
:10513000934213D00F4A934212D00F4A934211D098
:105140000E4A934210D00E4A93420FD001200D4ACE
:105150004042934201D1063040B270470020FBE745
:105160000120F9E70220F7E70320F5E70420F3E741
:1051700000080042000C00420010004200140042EF
:1051800000180042001C0042F8B5FFF7CFFF0028CE
:105190002CDBC3001C48FF22C01805230479C3562A
:1051A00003201840C0008240C021D2438140002B20
:1051B0001DDB1F2501201D40C026A840134D760091
:1051C000A851C0269B089B005B19B6009F593A4026
:1051D0001143995128603F2323408024E4011C435C
:1051E0000B4B5C805A7852B2002AFBDBF8BD0F20D3
:1051F0000340083B07489B089B001B18D8690240E6
:105200001143D961E7E7C04680F2000000E100E009
:10521000000C004000ED00E0F8B504000F0016009F
:105220001D00FFF7B1FF2000FFF7F7FD1C21BB00B9
:105230000B4071072268090C0B431360842322681A
:105240009375012F1AD11021012E00D008390C4B73
:1052500069431868C00002F03BFA07222168024047
:105260008B895203DB04DB0C13438B81226803041C
:105270009089DB0C400B400318439081F8BDC04679
:1052800098000020F7B50400019308AB0D0016004C
:105290001F78FFF719FE2000FFF776FFC0223605C2
:1052A000920332400C261643C0222D049202154070
:1052B000072223683543BF072F431F60019B2168E6
:1052C00013401A0080239B0213434B602268D3696A
:1052D0005B07FCD4F7BD0000F8B504000F00FFF732
:1052E00053FF2000FFF73FFE1422236879001A6065
:1052F0000C4B25681E68300002F0EAF90A490400E8
:10530000300002F0E5F97D23FA215843C90002F08C
:10531000DFF9FF23241AE868053C1C409843044346
:10532000EC60F8BD9800002040420F0010B504006A
:1053300001F04EFDE060236820009B69984700283B
:105340000ADA01F09DFD01F043FDE368C01AA3688D
:105350009842F0D30120404210BD0000F8B504008F
:105360000D00160001272000FFF7E0FF00281CDBDE
:105370002D281AD00300303B092B16D9002E01D05E
:105380002E2812D0012D0ED0022D07D10938172852
:1053900009D83A008240054B1A4204D02368200005
:1053A0005B699847DFE701204042F8BD13008000A9
:1053B000F7B5019201220600FFF7D0FF002843DB7A
:1053C0000024FE272500BF050094019B834217D0CF
:1053D0002D2834D02E2835D00300303B092B0FD890
:1053E0000A235C432418303C002D09D0381C04F0FB
:1053F000CDFB164A164B03F051FD04F019FC071CB7
:10540000336830005B6998473000FFF78FFF030077
:10541000303B092BD9D92E2801D1002DD5D0019BA5
:105420008342D2D0009B002B00D06442200002F0C7
:1054300085FD002D02D0391C02F02EFCFEBD01239B
:105440000093DDE70125DBE70020F7E79A999999BA
:105450009999B93F3F20704713B56B460268D971DF
:105460000733546819000122A04716BD10B5022168
:10547000006900F00BFD034B1B6801335A1E93417A
:10548000181810BD6C00002010B50321006900F051
:1054900013FD10BD10B50321006900F0DBFC10BD49
:1054A00010B5054C23685A1C04D103685B69984702
:1054B00003002060180010BD6C000020074B0200A4
:1054C000186810B5411C03D0012252421A6010BD69
:1054D0000221106900F0DAFDF9E7C0466C000020F7
:1054E00010B51300094A0400D079C0B2002805D1D4
:1054F000627E002A02D00123636006E00A00206970
:10550000032100F0D1FD0028F5D010BD20000020BF
:1055100010B503784222023303700249024800F0BA
:105520006FFE10BD28000020140A002010B501787D
:10553000020043780020A12908D1212B05D10722A0
:105540001649174800F05CFE012010BD2129FCD14E
:10555000202B13D107221149114800F0F1FC9622AB
:105560000E4BD200196891420ED10124D879044023
:105570000AD1FA2001F0AEFF0020E6E7222B06D187
:105580009278064BDA71EAE701F0AAFFF4E7232BE1
:10559000DBD15288034B1A60D7E7C04620000020B9
:1055A000140A00201C0000200123437670470000ED
:1055B000FA220021054B92009A60054A5960083290
:1055C0001A60044A19761A617047C046F80900202B
:1055D000B0F20000140A00207047704770B50F2623
:1055E000CB1D013902003240D5B22C000009303405
:1055F000092A00DD07341C70013B8B42F2D170BDDB
:10560000A02110B50400490002F053F8200010BD9D
:10561000F8B5032908D1304B8000C058002802D0CB
:1056200003689B689847F8BD822919D1C3B22B4DF6
:105630005A01AA1891692A4C80010C40C0218905A1
:10564000214391612749083340187021506128682F
:105650005B011A5C8A43110030220A431A54E2E7C4
:105660000029E0D1C026C1B21C4C4B01E3189A6856
:105670001B4DB6052A4032439A601B4A80018218AE
:105680005A600A000727246808325201115DB943A5
:105690000F000121394311559F6912493D404018BF
:1056A0002E439E6158617020115D814308001021D6
:1056B0000143115599680D48A218084080214903FB
:1056C000014399609968890B890399604023117996
:1056D0000B431371A7E7C046180A0020CC0E002028
:1056E000FFFFFF8F400A0020000C0020FF3F00F06A
:1056F000EFF3108303600123436072B670470368C1
:10570000002B02D162B6BFF36F8F7047F7B505006B
:10571000FC35EB690600002B18D196277F00C45D8D
:105720006846FFF7E5FF019BE4B2013B02D3F45D5D
:10573000E4B2FAE768460193FFF7E1FF002C01D1DC
:105740000020FEBDE86AAB6AC01AFAE76846FFF7B8
:10575000CFFF9E220024019B5200013B02D3B45C88
:10576000E4B2FAE768460193FFF7C9FF002CE7D0DF
:10577000E86BAB6BE8E7000030B54468FC30436988
:105780008069DBB25A01A2189168094D8004294052
:1057900000090143916091680833890B8903916086
:1057A00022685B01D318402219790A431A7130BD6F
:1057B000FF3F00F0F7B50500FF21FC356A6943683B
:1057C0000A401B68083252019A18D3790400DB079B
:1057D00054D50126D6716B6962680B405B01D31802
:1057E000286A9A689204920C002822D1EA62EA6A36
:1057F000002A40D06A6B2E6268465A60FFF778FF35
:105800009E273E21019B7F00013BFF315A1C2ED079
:1058100096225200A654E25D581ED2B2002A05D04C
:10582000665468460193FFF76AFFF7BD62540300B0
:10583000ECE7EA63EA6B002A1DD000222A626A6A5A
:1058400068465A60FFF754FF96273E21019B7F0070
:10585000013BFF315A1C0AD09E225200A654E25D41
:10586000581ED2B2002ADBD162540300F2E7684628
:105870000193FFF744FF2000FFF77EFF63681A687B
:105880006B69DBB208335B01D3187F22DA71CCE796
:10589000F7B5070068463C00FFF72AFF0026FF2205
:1058A000019BFC34013B0DD3E0682169884204DB95
:1058B000E6682069961B3618F4E72669E168761ACF
:1058C000013EEFE768460193FFF719FFE369684679
:1058D000002B52D1FFF70CFF9621019B4900013BA1
:1058E0005A1C0CD07D5C5A1EEDB2002D05D16846C5
:1058F0000193FFF704FF2800FEBD1300F0E76846A0
:1059000001930025FFF7FBFEFF21A36AB54214D0E7
:10591000E26A9A4211D95A1CA262626AD3181878B4
:10592000E36822690133C0B20B40934203D0E268BE
:10593000BA181072E3600135E7E7E26A9A42DAD1F9
:105940000023A3620133E36168469624FFF7D0FE8B
:1059500064003E220021019BFF32013B581CC6D04F
:105960003955B85C5E1E002805D0B9543800019343
:10597000FFF702FFEDE73300F0E7FFF7B9FE9E21E6
:10598000019B4900013B5A1C06D07D5C5A1EEDB2BA
:10599000002DACD01300F6E7684601930025FFF711
:1059A000AEFEFF21A36BB54202D0E26B9A421DD836
:1059B000E26B9A429FD100236846A363E3619E2471
:1059C000FFF796FE64003E220021019BFF32013B5F
:1059D000581C00D18BE73955B85C5E1E002817D0E3
:1059E000B95438000193FFF7C7FEECE75A1CA263D5
:1059F000626BD3181878E36822690133C0B20B4098
:105A0000934203D0E268BA181072E3600135C9E727
:105A10003300DDE710B50400FFF73AFF2300FC3345
:105A20001969DA68914203D01B69E418207A10BD25
:105A300001204042FBE710B50400FC34FFF728FFCB
:105A4000E0682369C01A01D50130FF3010BDF0B500
:105A500085B0019200910500FFF71AFF02A8FFF739
:105A600047FE01200024FF26039B40425A1E531C80
:105A70001FD02B00FC3301998C4218D2D9681F69C2
:105A8000C91B01D50131FF31002910D01969DF6828
:105A90008C460100BC4506D019691F696918013799
:105AA0003740097A1F61009F39550134E3E7013A15
:105AB000DDE702A80392FFF722FE200005B0F0BD4B
:105AC00037B56B46DC1D00230D0020002370FFF767
:105AD0001FFD2B681818286001F08AFD210001F0D5
:105AE00043FD2B681818286020783EBD02220B0069
:105AF00010B593430C00012B0BD10D4B08341B68E0
:105B000064011C19802321795B420B432371E271EC
:105B100010BD01F06DFD210001F05AFD0028F7D005
:105B2000034B08341B6864011C197F23E371EFE702
:105B3000CC0E002070B50024374B012105000B204E
:105B40001C7001F0E7FB01210B2001F013FC334B2B
:105B500001210C201C7001F0DDFB01210C2001F063
:105B600009FC20232E4A0F20D1690B43D361012267
:105B70002C490B7813430B702B4B19788143197008
:105B800006211C782143197028490C7822430A7099
:105B90001A7802401A70602219780A431A70244B4E
:105BA000244A5A805A78D209FCD1234801F00AF9D4
:105BB000224C7F26200001F02DFD200001F042FD47
:105BC0000C2108232068C2788A4313430322C37040
:105BD0002068C3789343013A1343C3702068037865
:105BE0003340037004232068067833430370206831
:105BF00003898B430381C120114980000B581B028C
:105C00001B0A0B5080230B60236819780A431A7013
:105C100001232B7070BDC046350A0020340A0020D5
:105C200000040040584400413C44004159440041B4
:105C3000000C00400640000071660000CC0E002001
:105C400000E100E00078002810D00121084B1B681B
:105C50001A898A431A810822198B0A431A8304225B
:105C6000198B0A431A830022024B1A607047C04600
:105C7000CC0E0020C40E002010B50F4A93699B0B78
:105C80009B03936113680222FF331A729879823A58
:105C900002439A711A7A9207FCD57F24074A214061
:105CA000937A0800A3431900802301439172917AEB
:105CB0005B420B43937210BDCC0E0020005000419C
:105CC00010B50B790C00002B0CD10800FFF72EFC4F
:105CD000002801D0012010BD094A93699B0B9B034A
:105CE0009361F7E701F084FC210001F061FC0028DA
:105CF000F0D1034A93699B0B9B039361EBE7C0468A
:105D0000CC0E0020F8B50D00832A19D1CBB2434C3C
:105D10005A01A21891694248AD010840C021890585
:105D2000014391613F4920686D1870210833556126
:105D30005B011A5C8A43110040220A431A54F8BDE1
:105D4000022A65D1384B8A00D058002802D0036857
:105D50009B699847A020400001F0C2F88027060008
:105D6000324B7F0003602D4B002143603A00083026
:105D700004F0A6F8340096220023FC345200E360BD
:105D8000A36223616561E361A7612362E362B354A7
:105D90001032A363E363B3543E223800FF32B3549E
:105DA00004F04CF86062380004F048F82B0060639F
:105DB000FF201A4903405A018A189168184F083386
:105DC0000F40C0218905394307279160134A5B01C1
:105DD0001168AD005A5CBA43170003223A435A5483
:105DE00061697368014049015918636A4B607368BF
:105DF00062691B68024052019B1801221B18997AA4
:105E000030000A439A72FFF7B7FC074BEE5096E753
:105E100011002800FFF7FCFB91E7C046CC0E0020E4
:105E2000FFFFFF8F400A0020180A0020E0F2000068
:105E300070B505000124064BA200D258002A06D0F6
:105E4000210028000134FFF75DFF0A2CF3D170BD5B
:105E5000700000200B4BCAB20B488901C9185301CE
:105E6000C318596199690832890B890399610368DC
:105E700052019A180223D3715179823B0B4353711B
:105E80007047C046400A0020CC0E0020084B8A0014
:105E9000D05810B5002803D00368DB68984710BDC0
:105EA000C9B2044B4901591888688004800CF6E790
:105EB000180A0020CC0E002010B50C00FFF7E6FFFA
:105EC00000280CD0064BE4B21B68083464011C198E
:105ED000802362795B42134363710223E37110BD37
:105EE000CC0E002070B5CBB2124A13485C01890178
:105EF0008918021951609168104D08330D408021B6
:105F000089022943402591609168890B890391603A
:105F100001685A018A1816793543157195796D060D
:105F2000FCD55B01C918CB79DB07FCD5001980686B
:105F3000C0B270BD000C0020CC0E0020FF3F00F06E
:105F400070B5140040220B4B0D001B68FF335979CC
:105F50000A435A710021FFF7C5FFA04200D9200073
:105F600000230549A34203D0CA5CEA540133F9E790
:105F700070BDC046CC0E0020000C002010B5C9B288
:105F80000B484901421893689B049B0C3F2B0BD98B
:105F90009468403B9B04A40B9B0CA4032343936095
:105FA00041188868C0B210BD93689B0B9B03F6E74D
:105FB000CC0E0020F0B51C002F4B85B01B680600EE
:105FC0000D000192002B54D02C4F3978C9B2002912
:105FD00002D10C2001F0CEF964233B70284BAA00BB
:105FE000D058002808D0036822005B6801999847C0
:105FF0000400200005B0F0BD29003000FFF746FF87
:10600000844204D929003000FFF740FF0400290032
:106010003000FFF7B3FF0121EBB21A4F03935B018E
:106020000293029A3B6801989B18FF335A7A0A43FD
:106030005A72154BA901C918220003F025FF002C44
:10604000D7D029003000FFF721FF0028D1D140210F
:10605000039B3A6808335B01D3181879014319711F
:106060000121D971029BD318FF339A7A0A439A729D
:10607000BFE701246442BCE7C40E0020340A0020BC
:10608000180A0020CC0E0020000C002013B56B462F
:10609000DC1D22000123FFF78DFF012801D12078AC
:1060A00016BD01204042FBE7F0B51E003A4B85B01B
:1060B0001B680F000192002B3FD08023DB019E4222
:1060C0003BD8364C2178C9B2002902D10B2001F00F
:1060D00051F9642300252370314BBA01D318029380
:1060E000002E2CD02F4B1B680393FF233B401C003A
:1060F00000930834039B64011C19A379DB0921D0A8
:10610000294B2A49186801F0E3FA294B1721584313
:1061100001F0DEFA274BE279920713D4DA5D002A08
:1061200001D10138F7D20122DA55009B5A011D4BEB
:106130009B189A69920B92039A6101256D4228007F
:1061400005B0F0BD00221B4B3400DA55402E00D9BB
:10615000402422000199029803F096FE009BA104BE
:106160005A01104B890C9B18029A2D195A619A6991
:10617000361B920B92030A439A61009B039A0833E1
:106180005B01D3180222DA715979823A0A435A71B3
:10619000019B1B190193A3E7C40E0020350A0020C0
:1061A000400A0020CC0E00209800002040420F0042
:1061B00070110100370A002070B50D001C000D4B56
:1061C000AE01F61811003000220003F05DFEEDB2C2
:1061D00009496D014D196E61AB69084A20001340F1
:1061E000AB61AB69A2049B0B920C9B031343AB61A5
:1061F00070BDC046400A0020CC0E0020FF3F00F0DA
:10620000F7B5104B01901B780F001500002B0CD137
:106210000D4B16001C78002C09D00C4E0C4834880D
:106220002018641903F030FE34802800FEBD002ED3
:10623000FBD03A19330000210198FFF7BDFF241865
:10624000361AF4E7C00D0020C10E0020C20E002057
:10625000C10D0020F8B5002000AF0E001500012A86
:1062600027D9D31D6A46DB08DB00D31A9D460800F8
:1062700004F0A6FE6C4603230222002101304000F8
:1062800020706370AA420DD2307800280AD0531CC7
:10629000DBB20136A0549D4203D00232E154D2B2A7
:1062A000F0E72A0021000448FFF7AAFF431E9841A7
:1062B000C0B2BD46F8BDC046140A0020F0B50024A7
:1062C000012685B0184B0F0069461E70050000942A
:1062D000FFF7F6FB154B01A90B806A3BFF3BCB7127
:1062E0006E3B0B72009B8C7109334B800E4B4E71D1
:1062F00008711C703A00092F0FD00D4F09223E7013
:106300000C4E280000943480FFF77AFF694628007D
:10631000FFF7D6FB328808493C702800FFF770FF72
:10632000012005B0F0BDC046C00D002009020000EC
:10633000C10E0020C20E0020C10D0020F0B5CF78A4
:1063400093B005000E00022F09D1C9882D48FFF730
:10635000B5FF441EA041C4B2200013B0F0BD01F04F
:1063600047F9310001F014F9002803D0C417241AAA
:10637000E40FF1E7012F0FD1F288082A0AD0224951
:10638000112A13D8D2B2002A10D02800FFF738FF04
:106390000124E1E71D49F5E70400032FDCD1B378C0
:1063A000002B05D1F2881A49032AEBD90A78ECE7C9
:1063B000022B06D1B27917492800FFF74BFF0400E2
:1063C000CAE7012B02D1B2791349F5E7032BC3D1F8
:1063D000124B01A91868FFF701F9114B03A91868BE
:1063E000FFF7FCF80F4B05A91868FFF7F7F80E4BFD
:1063F00007A91868FFF7F2F86B460533DC77B27926
:1064000001A9D9E7140A002018F300002AF30000BC
:106410000EF3000000F3000012F300000CA0800057
:1064200040A0800044A0800048A0800037B5040050
:1064300048780D000B2810D801F040F9061B0F2BEF
:106440000F40456D494C6669097801AA002906D1BB
:10645000022311802000FFF7AFFE01203EBD002384
:1064600013802E4B1B78012B00D1137002230021C7
:10647000F0E78A780023012A03D101AA1380284B70
:10648000F0E7264A1370274A93699B0B9B0393619D
:10649000E3E78D78012D06D10021214B01AA1D7063
:1064A00011702B00D6E70120002DD7D11B4B1D4AC0
:1064B000187093699B0B9B039361CFE78978200049
:1064C000FFF7DAFBC9E72000FFF738FFC6E7012333
:1064D000154ACCE70B780020DB06BFD12000FFF780
:1064E000A7FC2A20AA78104BFF301A6002230D4A1D
:1064F00011680C5C23434A240B54FF340B5D29388C
:10650000FF3803430B55D4E70123084AAFE78A78E5
:10651000064B1A60B7E70020A0E7C046360A002005
:106520003E0A0020CC0E0020C40E0020C80E002021
:10653000474BF7B51C780600002C7CD1454D2B68E5
:106540009B8B1B070ED521002000FFF761F82A68FE
:1065500010231100FF31887A03438B723E4B1C607D
:10656000082393832B689A8B52071FD504229A83A2
:106570003A4A1378002B0AD01378013BDBB2137030
:106580001378002B03D101210B2000F0F3FE344AD5
:106590001378002B0AD01378013BDBB21370137809
:1065A000002B03D101210C2000F0E4FE2B68FF3307
:1065B0001A7AD2061ED510221A72597930320A433D
:1065C0005A716023274930000A781A4234D1FFF704
:1065D0002DFF2B68FF33002831D080229979524259
:1065E0000A439A711A7A520604D540221A72597ACD
:1065F0000A435A72012427002B681B8CA343DBB289
:106600000193019B23413B4212D023002A680833A7
:106610005B01D318DA79D20702D4DB799B0707D55F
:10662000114BA200D05800280DD003681B68984772
:106630000134082CE5D1F7BDFFF742FBC9E7202163
:106640000A4A9171CEE7E1B23000FFF74FFAEFE767
:10665000C10E0020CC0E0020C40E0020350A002000
:10666000340A0020000C0020180A0020FF500041CE
:1066700010B50248FFF75CFF10BDC046140A0020A9
:10668000014B024A1A607047CC0E002000500041B6
:106690000120704710B50368014A1B6A984710BD76
:1066A000130400000300FC33D9699A69914203D0B6
:1066B000DB69C018007D704701204042FBE710B540
:1066C00004000069FEF7A9FB22000023FC3293615D
:1066D000D36186229200A4186360A36010BDF020ED
:1066E00001403039484248417047F0231B011940AE
:1066F000802306209B0099420AD00133FF330130EA
:10670000994205D0802302385B00994200D00020D6
:1067100070470F2001400020012903D00239481E94
:106720008141481C704700008923F0B5182685B0C8
:1067300002919B000400C05C330008214343324DAA
:106740001700EB18595600F063FE304B0821E05C4F
:1067500033004343EB18595600F05AFE2C4BE25CD1
:106760000393022A09D11133E05CFF2805D00821E8
:106770004643AE19715600F04BFE8A26B600A05D66
:10678000FF2819D0012100F0C5FD1822A35D214981
:106790005A43AB56AD18DB0158188B218900605065
:1067A0001D4901225B188C218900635069688A4069
:1067B0008D21890062501A600122029B110020691C
:1067C000FEF72AFD39002000FFF78FFF3900050092
:1067D0002000FFF79EFF390006002000FFF77FFF33
:1067E00033000090290020690122FEF7E6FA0B4BE6
:1067F0002069E25C039BE15CFEF7FCFA2069FEF78E
:1068000019FB05B0F0BDC046D8F00000250200001D
:1068100027020000184400411444004126020000F1
:10682000802210B504005200002103F049FB230030
:106830000022FC335A6020009A6010BDF7B51D009D
:1068400008AB1B780400009309AB1B78160001937A
:1068500000234360FA239B008360114B0F00083331
:1068600003601430FFF7DCFF20001D30FF30FFF71E
:10687000D7FF89236A469B002761E654094B1278AB
:10688000E554094B2000E2546A46084B1279E25461
:106890008A22293BFF3B9200A3541032A354FEBD31
:1068A0003CF3000025020000260200002702000041
:1068B0000300FC3359689A68914204DB5A6898686F
:1068C000801AFF30704798685B68C01A0138F9E792
:1068D00010B51D30FF30FFF7EBFF10BD030070B5A2
:1068E000FC33D9699A69040091421AD0DA69821896
:1068F000157DDA690132D2B2DA618A239B00E35C4A
:10690000FF2B0CD020001430FFF7D2FF0A2806DD41
:106910008C238D229B009200E358A2581A60280015
:1069200070BD01256D42E8E70300FC3358689B68A1
:10693000C01A01D50130FF30704710B504002000A7
:106940001D30FF30FFF7F0FF0028F8D12069FEF777
:106950007BFA10BD10B51430FFF7E6FF10BD10B57F
:1069600004000069FEF78CFA002805D02069FEF7C4
:1069700097FA2069FEF789FA2069FEF771FA002874
:1069800020D02069FEF78CFA2200FC329369D1698D
:106990000133DBB28B4203D09169611808759361B2
:1069A0008A239B00E35CFF2B0CD020001430FFF700
:1069B0007FFF092806DC8B238D229B009200E35881
:1069C000A2581A602069FEF766FA00281AD0200043
:1069D0001D30FF30FFF7A8FF002822D086239B0040
:1069E000E31899685A68914218D08E219A68490034
:1069F000A218515C9A680132D2B29A60C9B2206979
:106A0000FEF752FA2069FEF730FA002805D0206917
:106A1000FEF72FFA2069FEF71FFA10BD0121494247
:106A2000ECE72069FEF74CFAECE7000070B50400D3
:106A300000690D00FEF72FFA00283ED1FF268623BD
:106A40009B00E3185A689968013232408A4223D188
:106A5000EFF31083DB070DD41E4B5B68DB05DB0D0A
:106A6000EDD0103B5BB2002B0DDB9B08C0331A4A04
:106A70009B009B582069FEF70EFA0028DFD020000B
:106A8000FFF76DFFDBE70F221340083B9B08134A1B
:106A90009B009B181B68EDE75A68013216409A6804
:106AA000964205D08E215A684900A21855545E605E
:106AB0002069FEF701FA012070BD20001D30FF3073
:106AC000FFF732FF0028B9D129002069FEF7ECF961
:106AD000F1E7C04600ED00E000E100E01CED00E061
:106AE000F7B50092182216254243514B07009B1818
:106AF0005D5701916B1C52D04E4B4F4C1E68002EBF
:106B00002BD1310044224D4803F0DAF93100442200
:106B10004B4803F0D5F910224A4B4B491E604B4BB2
:106B2000CA67BFF34F8FBFF36F8FC021C1204900E9
:106B30005A5080001958FF36B14319501A60444B1F
:106B4000444A5A8002232278134323706378DB0976
:106B5000012BFBD00122374B1A6001231E00AE40EF
:106B6000626932436261019A002A18D0102D1FD148
:106B7000E2781343E370009B042B0BD81800072323
:106B8000A2789A4300F09AFD030C0E101200052320
:106B90001343A3702A4B019A1A64B6B2E660F7BD9C
:106BA0000423F5E70323F3E70223F1E70123EFE7EB
:106BB00038000027002100F02BFC224B1F499C4687
:106BC0001B68BA00BB421DD16046013303608E5082
:106BD0001B4B01999950072D19DD0123083DAD008C
:106BE0000721A940144A9B009B189A698A439A611D
:106BF000009A042AD1D81000996900F05FFD0B10AB
:106C0000121416008858B042E1D00137D9E7AD0020
:106C10000023E5E70522AA400A439A61BDE7042262
:106C2000F9E70322F7E70222F5E70122F3E7C0467E
:106C3000D8F0000058100020001800401410002068
:106C4000D00F00205C10002004E100E000E100E033
:106C5000000C004005400000182316224343194849
:106C600070B5C0188256531C0ED0174B102A0CD189
:106C70000720997881439970012494400022134D94
:106C800013482968914208D170BD0121914088B212
:106C90009860586988435861EEE793001E58A642F1
:106CA00005D10C4C0139914203D82960ECE701323F
:106CB000E8E7C61876680132C650E61876681E51B5
:106CC0000433F0E7D8F00000001800405C1000200A
:106CD00014100020D00F002010B50024084B1B68B2
:106CE000A34200D810BD074A0749A30010695958AC
:106CF000014203D01161054A9B5898470134EDE7E2
:106D00005C1000200018004014100020D00F00205C
:106D1000054B10B51B6C002B00D098470123034A8C
:106D2000D1780B43D37010BDD00F00200018004065
:106D300010B51C00431A0298511A001B584300F06A
:106D400051FD001910BDFEE7FEE70000034B10B532
:106D50001B68002B00D0984710BDC0466010002073
:106D600070B50F490F4CA14204D100F0E7F800F0D4
:106D70009FF8FEE70C4D00238D42F6D0CA18E818A4
:106D8000A24205D3094B8242EFD00949002204E018
:106D9000006804331060F1E704C38B42FCD3E4E7DE
:106DA000000000209C02002000F80000A00200204B
:106DB0008410002010B500F064F8002801D100F024
:106DC00055F810BD014B18607047C0466010002098
:106DD000014B18687047C04664100020F7B513488F
:106DE000012284461249134C8E68636805689B0E25
:106DF0001340019288686268019F920E3A4067468C
:106E00003F6893420ED1BD420CD186420AD35B1932
:106E1000FA254868AD00861B07486B437043000D98
:106E2000C018FEBD3D0013000600E3E7641000201B
:106E300010E000E000ED00E05555000070B5041EC4
:106E400010D0FFF7CBFF050000F01AF8FFF7C6FFE0
:106E5000054B401B9842F7D9FA23013C9B00ED18E3
:106E6000002CF3D170BDC046E703000010B5034A03
:106E700013680133136000F03BFB10BD6410002069
:106E8000704700207047704710B5FBF769F9FBF7B2
:106E9000EBFBFFF7F5FF034B002BF8D000E000BF42
:106EA000F5E7C0460000000010B5FFF7EDFF000059
:106EB00010B500F0F3F802F099FFFFF7E4FF0120AE
:106EC000FFF7BCFF054C2000FEF734FE2000FEF764
:106ED000B9FEFFF7E9FF002010BDC046140A0020EC
:106EE00010B502F0ABFF10BD10B502F0A7FF10BD4A
:106EF00010B502F0ADFF10BD10B502F0A9FF10BD36
:106F000010B50200EFF3108172B60A4B1868002822
:106F100001D10948186018688218EFF30884A2426A
:106F200004D21A60002900D162B610BD012040428F
:106F3000F8E7C04668100020841000201E2270B5BB
:106F400046484749436893431C3A13434360082328
:106F50008C6923438B61434C434B9C829C8A144332
:106F60009C82DC681442FCD00124404A14701578DD
:106F7000254203D055786DB2002DF8DB01249460D2
:106F8000547864B2002CFBDB394C5460547864B202
:106F9000002CFBDB8224E4015480547864B2002C82
:106FA000FBDB02249C840E34DD682542FCD0314C8E
:106FB000DC621024DD682542FCD09D8C2E4C2C43D5
:106FC0009C841024DD682542FCD002249D8C802600
:106FD0002C439C844024DD683542FCD0DD6825428A
:106FE000F9D01024DD682542FCD000249460547848
:106FF00064B2002CFBDB214C5460547864B2002C4A
:10700000FBDB1C6A1E4D2C4080251C621C6AAC43B5
:107010001C62032393601B4B536053785BB2002BBD
:10702000FBDB0023FF240B72174A4B728B72CB726F
:10703000164B1A60164B174A1B6811689A065B01BB
:10704000C90E2340520F12020B431343124A1385F9
:10705000802342681343436070BDC0460040004136
:10706000000400400C06000000080040000C004036
:1070700001050100B905FF7D040A000000070300B7
:10708000FFFCFFFF03060100006CDC0298000020FB
:10709000246080002060800000400042FA212D4BD7
:1070A00010B51868890000F013FB2B4B013898428B
:1070B0004FD82A492A4A4860C020136A00061B029A
:1070C0001B0A0343136200238B6007330B6080218C
:1070D000136A09061B021B0A0B431362FC22214B95
:1070E000196A0A431A62FF22196A12020A431A62D3
:1070F000A022196AD2020A431A621B4B1C005A785A
:1071000052B2002AFBDB194A5A80194B1A00597EE9
:10711000C9090129FBD0C821890099800521D970AE
:10712000537EDB09012BFBD0C02300205B011361E0
:10713000907000F049F863785BB2002BFBDB0D4BDD
:107140000D4A6380D379DB09012BFBD041235370B7
:1071500010BDFEE798000020FFFFFF0010E000E0F8
:1071600000ED00E000040040000C00401E40000064
:107170000040004221400000004800420F4B3022F6
:1071800018600F490F4B0A2809DD988890439880B2
:10719000243A0A605A7ED209012AFBD07047082897
:1071A00006DD98889043202202439A800A22F0E765
:1071B000988802439A800822EBE7C046A00000208E
:1071C0009C000020004000421F4900B50B004A7E91
:1071D000D209012AFBD001380A282FD800F06EFA14
:1071E0001B2E2E2E2E2E062E2E2411001A69174924
:1071F0000A400F211A615A788A43110001220A437A
:1072000010E01A6911490A400F211A615A788A431D
:1072100011000322F3E71A690C490A400F211A6191
:107220005A788A435A7000BD1A6908490A400F21EA
:107230001A615A788A4311000222E0E7F0221969A4
:1072400012050A43F3E7C04600400042FFFFFFF08B
:1072500010B50121040000F0DBF8002C0DD1284B03
:107260001900DA79D209012AFBD002201A78824368
:107270001A70CB79DB09012BFBD022490B004A7E27
:10728000D209012AFBD0182044431F480A6900197B
:107290001F24007CA243204002430A615A7ED20987
:1072A000012AFBD0022219780A431A705A7ED209A9
:1072B000012AFBD00222197B0A431A7301221A7693
:1072C0005A7ED209012AFBD00222197B0A431A7383
:1072D0001A7ED207FCD5588B80B25A7ED209012A79
:1072E000FBD002211A788A431A705A7ED209012AE9
:1072F000FBD0064B1A68064B196800F07FF810BDEA
:107300000048004200400042D8F00000A0000020E9
:107310009C000020182310B508244343134AD018BA
:107320000457013412D001249A5643689C40032923
:107330000CD808000E49D2015218D318403300F07F
:10734000BDF90210060B02211970546010BD062110
:10735000197054609461F9E7062119705460546102
:10736000F4E7022119709460F0E7C046D8F00000FD
:10737000004400411823F0B508245843114A13185B
:107380001C5701341BD0012635005F688356BD4071
:107390000D4ADB019A18906805420BD10C00601E63
:1073A0008441D2194032107834400336A400B043EF
:1073B00020431070044A9B18002901D15D61F0BD83
:1073C0009D61FCE7D8F0000000440041182310B58F
:1073D0000824434307490020CA181457013408D031
:1073E0005B560549DB015B18186A5368D8400123D6
:1073F000184010BDD8F0000000440041914202D076
:1074000002D98A1AD0407047521A9040FBE7000018
:107410001822424370B52D4E0300B218127A52B2B0
:10742000140001320ED0481C00240C280AD800F0A9
:1074300045F9071F1F1F1F1F1F1F1F0B0B0B0B00E3
:1074400001246442200070BD092905D100211800E3
:10745000FFF760FF0024F5E70A2901D10839F6E7B4
:1074600000240B29EED10A391800FFF753FFE9E792
:10747000182201205343F218F3565568144ADB01D1
:107480006C089B18C9B228401C1900280ED00F2088
:10749000303422780901024011434122C9B25B19FC
:1074A0002170403319780A431A70D3E722000F265F
:1074B000303214785B19B4432143117041224033B8
:1074C000197804000A431A70BCE7C046D8F00000DF
:1074D00000440041014B18607047C046A4000020E2
:1074E0000122024B52421A607047C046A40000209D
:1074F000164A10B51368591C26D0013B1360002BA7
:1075000022D172B6124B134A0433934213D9124A52
:1075100001211000147D0C42FCD02021148BFF317E
:107520009B085B0021431183D3610C4B1380012323
:10753000027D1A42FCD0BFF34F8F094B094ADA6033
:10754000BFF34F8FC046FDE710BDC046A40000202A
:1075500000200000030200000040004102A5FFFFE0
:1075600000ED00E00400FA0570B50E000025446847
:10757000002C0BD0236831005B682000984700285E
:1075800002DB2D18E468F3E701256D42280070BD89
:1075900070B50D004468002C08D0236829009B6852
:1075A00020009847002802D1E468F4E7200070BD6D
:1075B00070B50D004468002C08D0236829001B68B2
:1075C00020009847002802D1E468F4E7200070BD4D
:1075D00070B50D004468002C08D023682900DB68D2
:1075E00020009847002802D1E468F4E7200070BD2D
:1075F0000121054A10B5136804480B4003D1044C1F
:1076000043600480116010BD6C10002070100020D9
:107610000204000070B50400012304CC05001178B9
:1076200020000B43137080220021520002F048FC1E
:107630002B689A78D207FCD49A789207F9D45C62C6
:1076400070BD00001F22144BF0B51B68590B9C0C39
:107650009B01114014405B0F914200D105211F2C6A
:1076600000D1023C072B00D1043B02688F01158D2D
:107670000A491F2629403943118505683440298D60
:107680000A00B24322432A8500681903028D044B85
:1076900013400B430385F0BD246080003FF8FFFFDB
:1076A000FF8FFFFF0B0010B50100180002F080FBF8
:1076B00010BD10B5FFF71CFC10BD000002B47146F0
:1076C00049084900095C49008E4402BC7047C04625
:1076D000002243088B4274D303098B425FD3030A11
:1076E0008B4244D3030B8B4228D3030C8B420DD324
:1076F000FF22090212BA030C8B4202D312120902B2
:1077000065D0030B8B4219D300E0090AC30B8B42EF
:1077100001D3CB03C01A5241830B8B4201D38B039D
:10772000C01A5241430B8B4201D34B03C01A524142
:10773000030B8B4201D30B03C01A5241C30A8B4285
:1077400001D3CB02C01A5241830A8B4201D38B0270
:10775000C01A5241430A8B4201D34B02C01A524114
:10776000030A8B4201D30B02C01A5241CDD2C30986
:107770008B4201D3CB01C01A524183098B4201D302
:107780008B01C01A524143098B4201D34B01C01AED
:10779000524103098B4201D30B01C01A5241C30865
:1077A0008B4201D3CB00C01A524183088B4201D3D4
:1077B0008B00C01A524143088B4201D34B00C01AC0
:1077C0005241411A00D20146524110467047FFE72C
:1077D00001B5002000F0F0F802BDC0460029F7D046
:1077E00076E7704703460B437FD4002243088B4261
:1077F00074D303098B425FD3030A8B4244D3030B38
:107800008B4228D3030C8B420DD3FF22090212BAFC
:10781000030C8B4202D31212090265D0030B8B4278
:1078200019D300E0090AC30B8B4201D3CB03C01A62
:107830005241830B8B4201D38B03C01A5241430B3D
:107840008B4201D34B03C01A5241030B8B4201D32D
:107850000B03C01A5241C30A8B4201D3CB02C01A98
:107860005241830A8B4201D38B02C01A5241430A10
:107870008B4201D34B02C01A5241030A8B4201D3FF
:107880000B02C01A5241CDD2C3098B4201D3CB01A6
:10789000C01A524183098B4201D38B01C01A524155
:1078A00043098B4201D34B01C01A524103098B4259
:1078B00001D30B01C01A5241C3088B4201D3CB0044
:1078C000C01A524183088B4201D38B00C01A524127
:1078D00043088B4201D34B00C01A5241411A00D2D7
:1078E00001465241104670475DE0CA0F00D0494240
:1078F000031000D34042534000229C4603098B42B0
:107900002DD3030A8B4212D3FC22890112BA030A37
:107910008B420CD3890192118B4208D389019211B9
:107920008B4204D389013AD0921100E08909C3093E
:107930008B4201D3CB01C01A524183098B4201D340
:107940008B01C01A524143098B4201D34B01C01A2B
:10795000524103098B4201D30B01C01A5241C308A3
:107960008B4201D3CB00C01A524183088B4201D312
:107970008B00C01A5241D9D243088B4201D34B002D
:10798000C01A5241411A00D20146634652415B106F
:10799000104601D34042002B00D549427047634650
:1079A0005B1000D3404201B5002000F005F802BD95
:1079B0000029F8D016E770477047C0468446101C6F
:1079C00062468C46191C634600E0C0461FB501F0B4
:1079D000FDF9002801D40021C8421FBD10B501F0F7
:1079E00055F94042013010BD10B501F0EFF9002803
:1079F00001DB002010BD012010BDC04610B501F014
:107A0000E5F9002801DD002010BD012010BDC046B1
:107A100010B501F077F9002801DC002010BD01202D
:107A200010BDC04610B501F06DF9002801DA002044
:107A300010BD012010BDC04670B500220C4B0400E3
:107A40000D00FFF7EFFF002804D12000290001F00E
:107A5000FBFF70BD064B00222000290001F090FCC6
:107A600001F0F2FF80231B069C466044F1E7C0460C
:107A70000000E041F8B557464E464546DE46440212
:107A8000E0B546008846640A360EC70F002E63D064
:107A9000FF2E24D08023E400DB041C4300239946FE
:107AA0009B467F3E434642465D02D20F5B006D0A15
:107AB0001B0E9046924665D0FF2B55D080220021A8
:107AC000ED00D2047F3B1543F61A43464A467B40FD
:107AD0000F2A00D98DE06D48920082589746002CFD
